{
  "_format": "hh-sol-artifact-1",
  "contractName": "ZenChainStore",
  "sourceName": "contracts/ZenChainStore.sol",
  "abi": [
    {
      "inputs": [],
      "stateMutability": "nonpayable",
      "type": "constructor"
    },
    {
      "anonymous": false,
      "inputs": [
        {
          "indexed": true,
          "internalType": "uint256",
          "name": "productId",
          "type": "uint256"
        },
        {
          "indexed": false,
          "internalType": "string",
          "name": "name",
          "type": "string"
        },
        {
          "indexed": false,
          "internalType": "uint256",
          "name": "price",
          "type": "uint256"
        }
      ],
      "name": "ProductAdded",
      "type": "event"
    },
    {
      "anonymous": false,
      "inputs": [
        {
          "indexed": true,
          "internalType": "uint256",
          "name": "productId",
          "type": "uint256"
        }
      ],
      "name": "ProductDeactivated",
      "type": "event"
    },
    {
      "anonymous": false,
      "inputs": [
        {
          "indexed": true,
          "internalType": "uint256",
          "name": "purchaseId",
          "type": "uint256"
        },
        {
          "indexed": true,
          "internalType": "uint256",
          "name": "productId",
          "type": "uint256"
        },
        {
          "indexed": true,
          "internalType": "address",
          "name": "buyer",
          "type": "address"
        },
        {
          "indexed": false,
          "internalType": "uint256",
          "name": "quantity",
          "type": "uint256"
        },
        {
          "indexed": false,
          "internalType": "uint256",
          "name": "totalPrice",
          "type": "uint256"
        }
      ],
      "name": "ProductPurchased",
      "type": "event"
    },
    {
      "anonymous": false,
      "inputs": [
        {
          "indexed": true,
          "internalType": "uint256",
          "name": "productId",
          "type": "uint256"
        },
        {
          "indexed": false,
          "internalType": "string",
          "name": "name",
          "type": "string"
        },
        {
          "indexed": false,
          "internalType": "uint256",
          "name": "price",
          "type": "uint256"
        },
        {
          "indexed": false,
          "internalType": "uint256",
          "name": "stock",
          "type": "uint256"
        }
      ],
      "name": "ProductUpdated",
      "type": "event"
    },
    {
      "anonymous": false,
      "inputs": [
        {
          "indexed": true,
          "internalType": "uint256",
          "name": "productId",
          "type": "uint256"
        },
        {
          "indexed": false,
          "internalType": "uint256",
          "name": "newStock",
          "type": "uint256"
        }
      ],
      "name": "StockUpdated",
      "type": "event"
    },
    {
      "inputs": [
        {
          "internalType": "string",
          "name": "_name",
          "type": "string"
        },
        {
          "internalType": "uint256",
          "name": "_price",
          "type": "uint256"
        },
        {
          "internalType": "uint256",
          "name": "_stock",
          "type": "uint256"
        },
        {
          "internalType": "string",
          "name": "_category",
          "type": "string"
        },
        {
          "internalType": "string",
          "name": "_metadataURI",
          "type": "string"
        }
      ],
      "name": "addProduct",
      "outputs": [],
      "stateMutability": "nonpayable",
      "type": "function"
    },
    {
      "inputs": [
        {
          "internalType": "uint256",
          "name": "_productId",
          "type": "uint256"
        }
      ],
      "name": "deactivateProduct",
      "outputs": [],
      "stateMutability": "nonpayable",
      "type": "function"
    },
    {
      "inputs": [],
      "name": "emergencyWithdraw",
      "outputs": [],
      "stateMutability": "nonpayable",
      "type": "function"
    },
    {
      "inputs": [],
      "name": "getActiveProducts",
      "outputs": [
        {
          "components": [
            {
              "internalType": "uint256",
              "name": "id",
              "type": "uint256"
            },
            {
              "internalType": "string",
              "name": "name",
              "type": "string"
            },
            {
              "internalType": "uint256",
              "name": "price",
              "type": "uint256"
            },
            {
              "internalType": "uint256",
              "name": "stock",
              "type": "uint256"
            },
            {
              "internalType": "bool",
              "name": "active",
              "type": "bool"
            },
            {
              "internalType": "string",
              "name": "category",
              "type": "string"
            },
            {
              "internalType": "string",
              "name": "metadataURI",
              "type": "string"
            }
          ],
          "internalType": "struct ZenChainStore.Product[]",
          "name": "",
          "type": "tuple[]"
        }
      ],
      "stateMutability": "view",
      "type": "function"
    },
    {
      "inputs": [
        {
          "internalType": "uint256",
          "name": "_productId",
          "type": "uint256"
        }
      ],
      "name": "getProduct",
      "outputs": [
        {
          "components": [
            {
              "internalType": "uint256",
              "name": "id",
              "type": "uint256"
            },
            {
              "internalType": "string",
              "name": "name",
              "type": "string"
            },
            {
              "internalType": "uint256",
              "name": "price",
              "type": "uint256"
            },
            {
              "internalType": "uint256",
              "name": "stock",
              "type": "uint256"
            },
            {
              "internalType": "bool",
              "name": "active",
              "type": "bool"
            },
            {
              "internalType": "string",
              "name": "category",
              "type": "string"
            },
            {
              "internalType": "string",
              "name": "metadataURI",
              "type": "string"
            }
          ],
          "internalType": "struct ZenChainStore.Product",
          "name": "",
          "type": "tuple"
        }
      ],
      "stateMutability": "view",
      "type": "function"
    },
    {
      "inputs": [
        {
          "internalType": "uint256",
          "name": "_purchaseId",
          "type": "uint256"
        }
      ],
      "name": "getPurchase",
      "outputs": [
        {
          "components": [
            {
              "internalType": "uint256",
              "name": "productId",
              "type": "uint256"
            },
            {
              "internalType": "address",
              "name": "buyer",
              "type": "address"
            },
            {
              "internalType": "uint256",
              "name": "quantity",
              "type": "uint256"
            },
            {
              "internalType": "uint256",
              "name": "totalPrice",
              "type": "uint256"
            },
            {
              "internalType": "uint256",
              "name": "timestamp",
              "type": "uint256"
            }
          ],
          "internalType": "struct ZenChainStore.Purchase",
          "name": "",
          "type": "tuple"
        }
      ],
      "stateMutability": "view",
      "type": "function"
    },
    {
      "inputs": [
        {
          "internalType": "address",
          "name": "_user",
          "type": "address"
        }
      ],
      "name": "getUserPurchases",
      "outputs": [
        {
          "internalType": "uint256[]",
          "name": "",
          "type": "uint256[]"
        }
      ],
      "stateMutability": "view",
      "type": "function"
    },
    {
      "inputs": [],
      "name": "nextProductId",
      "outputs": [
        {
          "internalType": "uint256",
          "name": "",
          "type": "uint256"
        }
      ],
      "stateMutability": "view",
      "type": "function"
    },
    {
      "inputs": [],
      "name": "nextPurchaseId",
      "outputs": [
        {
          "internalType": "uint256",
          "name": "",
          "type": "uint256"
        }
      ],
      "stateMutability": "view",
      "type": "function"
    },
    {
      "inputs": [],
      "name": "owner",
      "outputs": [
        {
          "internalType": "address",
          "name": "",
          "type": "address"
        }
      ],
      "stateMutability": "view",
      "type": "function"
    },
    {
      "inputs": [
        {
          "internalType": "uint256",
          "name": "",
          "type": "uint256"
        }
      ],
      "name": "products",
      "outputs": [
        {
          "internalType": "uint256",
          "name": "id",
          "type": "uint256"
        },
        {
          "internalType": "string",
          "name": "name",
          "type": "string"
        },
        {
          "internalType": "uint256",
          "name": "price",
          "type": "uint256"
        },
        {
          "internalType": "uint256",
          "name": "stock",
          "type": "uint256"
        },
        {
          "internalType": "bool",
          "name": "active",
          "type": "bool"
        },
        {
          "internalType": "string",
          "name": "category",
          "type": "string"
        },
        {
          "internalType": "string",
          "name": "metadataURI",
          "type": "string"
        }
      ],
      "stateMutability": "view",
      "type": "function"
    },
    {
      "inputs": [
        {
          "internalType": "uint256",
          "name": "_productId",
          "type": "uint256"
        },
        {
          "internalType": "uint256",
          "name": "_quantity",
          "type": "uint256"
        }
      ],
      "name": "purchaseWithZTC",
      "outputs": [],
      "stateMutability": "payable",
      "type": "function"
    },
    {
      "inputs": [
        {
          "internalType": "uint256",
          "name": "",
          "type": "uint256"
        }
      ],
      "name": "purchases",
      "outputs": [
        {
          "internalType": "uint256",
          "name": "productId",
          "type": "uint256"
        },
        {
          "internalType": "address",
          "name": "buyer",
          "type": "address"
        },
        {
          "internalType": "uint256",
          "name": "quantity",
          "type": "uint256"
        },
        {
          "internalType": "uint256",
          "name": "totalPrice",
          "type": "uint256"
        },
        {
          "internalType": "uint256",
          "name": "timestamp",
          "type": "uint256"
        }
      ],
      "stateMutability": "view",
      "type": "function"
    },
    {
      "inputs": [
        {
          "internalType": "address",
          "name": "_newOwner",
          "type": "address"
        }
      ],
      "name": "transferOwnership",
      "outputs": [],
      "stateMutability": "nonpayable",
      "type": "function"
    },
    {
      "inputs": [
        {
          "internalType": "uint256",
          "name": "_productId",
          "type": "uint256"
        },
        {
          "internalType": "string",
          "name": "_name",
          "type": "string"
        },
        {
          "internalType": "uint256",
          "name": "_price",
          "type": "uint256"
        },
        {
          "internalType": "uint256",
          "name": "_stock",
          "type": "uint256"
        },
        {
          "internalType": "string",
          "name": "_metadataURI",
          "type": "string"
        }
      ],
      "name": "updateProduct",
      "outputs": [],
      "stateMutability": "nonpayable",
      "type": "function"
    },
    {
      "inputs": [
        {
          "internalType": "uint256",
          "name": "_productId",
          "type": "uint256"
        },
        {
          "internalType": "uint256",
          "name": "_newStock",
          "type": "uint256"
        }
      ],
      "name": "updateStock",
      "outputs": [],
      "stateMutability": "nonpayable",
      "type": "function"
    },
    {
      "inputs": [
        {
          "internalType": "address",
          "name": "",
          "type": "address"
        },
        {
          "internalType": "uint256",
          "name": "",
          "type": "uint256"
        }
      ],
      "name": "userPurchases",
      "outputs": [
        {
          "internalType": "uint256",
          "name": "",
          "type": "uint256"
        }
      ],
      "stateMutability": "view",
      "type": "function"
    },
    {
      "inputs": [],
      "name": "withdrawZTC",
      "outputs": [],
      "stateMutability": "nonpayable",
      "type": "function"
    }
  ],
  "bytecode": "0x6080604052600160048190556005556006805460ff1916905534801561002457600080fd5b50600080546001600160a01b03191633179055611bf9806100466000396000f3fe6080604052600436106101095760003560e01c8063c6e5d8f611610095578063db2e21bc11610064578063db2e21bc14610387578063e8d0aa011461039c578063f08ec846146103bc578063f2fde38b146103dc578063fd77e5de146103fc57600080fd5b8063c6e5d8f614610303578063ca0f46c014610330578063cf2c033414610352578063d1dc36631461037257600080fd5b80637acc0b20116100dc5780637acc0b20146101c85780638392fe31146101fb5780638da5cb5b1461027e5780639dfc3dd1146102b6578063b9db15b4146102d657600080fd5b806316f758dc1461010e57806323b4a7a3146101235780633742a9f71461014c5780634de91a63146101b2575b600080fd5b61012161011c36600461152f565b61041c565b005b34801561012f57600080fd5b5061013960055481565b6040519081526020015b60405180910390f35b34801561015857600080fd5b5061016c610167366004611551565b610759565b6040516101439190815181526020808301516001600160a01b03169082015260408083015190820152606080830151908201526080918201519181019190915260a00190565b3480156101be57600080fd5b5061013960045481565b3480156101d457600080fd5b506101e86101e3366004611551565b6107e9565b60405161014397969594939291906115b0565b34801561020757600080fd5b5061024e610216366004611551565b60026020819052600091825260409091208054600182015492820154600383015460049093015491936001600160a01b031692909185565b604080519586526001600160a01b039094166020860152928401919091526060830152608082015260a001610143565b34801561028a57600080fd5b5060005461029e906001600160a01b031681565b6040516001600160a01b039091168152602001610143565b3480156102c257600080fd5b506101216102d136600461152f565b6109c4565b3480156102e257600080fd5b506102f66102f1366004611551565b610a71565b604051610143919061168c565b34801561030f57600080fd5b5061032361031e3660046116c2565b610ce8565b60405161014391906116dd565b34801561033c57600080fd5b50610345610d54565b6040516101439190611721565b34801561035e57600080fd5b5061013961036d366004611783565b61109f565b34801561037e57600080fd5b506101216110d0565b34801561039357600080fd5b5061012161117a565b3480156103a857600080fd5b506101216103b7366004611850565b6111e1565b3480156103c857600080fd5b506101216103d73660046118d1565b6112ba565b3480156103e857600080fd5b506101216103f73660046116c2565b6113ff565b34801561040857600080fd5b50610121610417366004611551565b611493565b60065460ff16156104655760405162461bcd60e51b815260206004820152600e60248201526d1499595b9d1c985b9d0818d85b1b60921b60448201526064015b60405180910390fd5b6006805460ff19166001908117909155600083815260209190915260408120548391036104a45760405162461bcd60e51b815260040161045c90611953565b600083815260016020526040902060040154839060ff166104ff5760405162461bcd60e51b815260206004820152601560248201527450726f64756374206973206e6f742061637469766560581b604482015260640161045c565b60008481526001602052604090208361055a5760405162461bcd60e51b815260206004820152601f60248201527f5175616e74697479206d7573742062652067726561746572207468616e203000604482015260640161045c565b83816003015410156105a35760405162461bcd60e51b8152602060048201526012602482015271496e73756666696369656e742073746f636b60701b604482015260640161045c565b60008482600201546105b59190611999565b9050803410156105fe5760405162461bcd60e51b8152602060048201526014602482015273125b9cdd59999a58da595b9d081c185e5b595b9d60621b604482015260640161045c565b8482600301600082825461061291906119b6565b90915550506005805460009182610628836119c9565b909155506040805160a0810182528981523360208083018281528385018c8152606085018981524260808701908152600089815260028087528982209851895594516001808a0180546001600160a01b0319166001600160a01b0390931692909217909155935194880194909455905160038088019190915590516004909601959095559281529281529282208054918201815582529190200181905590503482101561070757336108fc6106dd84346119b6565b6040518115909202916000818181858888f19350505050158015610705573d6000803e3d6000fd5b505b60408051878152602081018490523391899184917f619f9920b110dd40beb399a4a33eb50fc3fe6a9c3baf31be5e5a568fdac37f77910160405180910390a450506006805460ff191690555050505050565b6107946040518060a001604052806000815260200160006001600160a01b031681526020016000815260200160008152602001600081525090565b50600090815260026020818152604092839020835160a0810185528154815260018201546001600160a01b03169281019290925291820154928101929092526003810154606083015260040154608082015290565b60016020819052600091825260409091208054918101805461080a906119e2565b80601f0160208091040260200160405190810160405280929190818152602001828054610836906119e2565b80156108835780601f1061085857610100808354040283529160200191610883565b820191906000526020600020905b81548152906001019060200180831161086657829003601f168201915b5050506002840154600385015460048601546005870180549697939692955060ff9091169350906108b3906119e2565b80601f01602080910402602001604051908101604052809291908181526020018280546108df906119e2565b801561092c5780601f106109015761010080835404028352916020019161092c565b820191906000526020600020905b81548152906001019060200180831161090f57829003601f168201915b505050505090806006018054610941906119e2565b80601f016020809104026020016040519081016040528092919081815260200182805461096d906119e2565b80156109ba5780601f1061098f576101008083540402835291602001916109ba565b820191906000526020600020905b81548152906001019060200180831161099d57829003601f168201915b5050505050905087565b6000546001600160a01b031633146109ee5760405162461bcd60e51b815260040161045c90611a16565b600082815260016020526040812054839103610a1c5760405162461bcd60e51b815260040161045c90611953565b600083815260016020526040908190206003018390555183907febcfd4ce21b6aefd071d3e0f4bfa57e491b5308a1ffb5a3a8e4805e23f00b8d790610a649085815260200190565b60405180910390a2505050565b610ab36040518060e001604052806000815260200160608152602001600081526020016000815260200160001515815260200160608152602001606081525090565b600082815260016020526040812054839103610ae15760405162461bcd60e51b815260040161045c90611953565b600083815260016020818152604092839020835160e0810190945280548452918201805491840191610b12906119e2565b80601f0160208091040260200160405190810160405280929190818152602001828054610b3e906119e2565b8015610b8b5780601f10610b6057610100808354040283529160200191610b8b565b820191906000526020600020905b815481529060010190602001808311610b6e57829003601f168201915b50505091835250506002820154602082015260038201546040820152600482015460ff1615156060820152600582018054608090920191610bcb906119e2565b80601f0160208091040260200160405190810160405280929190818152602001828054610bf7906119e2565b8015610c445780601f10610c1957610100808354040283529160200191610c44565b820191906000526020600020905b815481529060010190602001808311610c2757829003601f168201915b50505050508152602001600682018054610c5d906119e2565b80601f0160208091040260200160405190810160405280929190818152602001828054610c89906119e2565b8015610cd65780601f10610cab57610100808354040283529160200191610cd6565b820191906000526020600020905b815481529060010190602001808311610cb957829003601f168201915b50505050508152505091505b50919050565b6001600160a01b038116600090815260036020908152604091829020805483518184028101840190945280845260609392830182828015610d4857602002820191906000526020600020905b815481526020019060010190808311610d34575b50505050509050919050565b6060600060015b600454811015610d9f5760008181526001602052604090206004015460ff1615610d8d5781610d89816119c9565b9250505b80610d97816119c9565b915050610d5b565b5060008167ffffffffffffffff811115610dbb57610dbb6117ad565b604051908082528060200260200182016040528015610e2e57816020015b610e1b6040518060e001604052806000815260200160608152602001600081526020016000815260200160001515815260200160608152602001606081525090565b815260200190600190039081610dd95790505b509050600060015b6004548110156110965760008181526001602052604090206004015460ff161561108457600081815260016020818152604092839020835160e0810190945280548452918201805491840191610e8b906119e2565b80601f0160208091040260200160405190810160405280929190818152602001828054610eb7906119e2565b8015610f045780601f10610ed957610100808354040283529160200191610f04565b820191906000526020600020905b815481529060010190602001808311610ee757829003601f168201915b50505091835250506002820154602082015260038201546040820152600482015460ff1615156060820152600582018054608090920191610f44906119e2565b80601f0160208091040260200160405190810160405280929190818152602001828054610f70906119e2565b8015610fbd5780601f10610f9257610100808354040283529160200191610fbd565b820191906000526020600020905b815481529060010190602001808311610fa057829003601f168201915b50505050508152602001600682018054610fd6906119e2565b80601f0160208091040260200160405190810160405280929190818152602001828054611002906119e2565b801561104f5780601f106110245761010080835404028352916020019161104f565b820191906000526020600020905b81548152906001019060200180831161103257829003601f168201915b50505050508152505083838151811061106a5761106a611a57565b60200260200101819052508180611080906119c9565b9250505b8061108e816119c9565b915050610e36565b50909392505050565b600360205281600052604060002081815481106110bb57600080fd5b90600052602060002001600091509150505481565b6000546001600160a01b031633146110fa5760405162461bcd60e51b815260040161045c90611a16565b478061113d5760405162461bcd60e51b81526020600482015260126024820152714e6f205a544320746f20776974686472617760701b604482015260640161045c565b600080546040516001600160a01b039091169183156108fc02918491818181858888f19350505050158015611176573d6000803e3d6000fd5b5050565b6000546001600160a01b031633146111a45760405162461bcd60e51b815260040161045c90611a16565b600080546040516001600160a01b03909116914780156108fc02929091818181858888f193505050501580156111de573d6000803e3d6000fd5b50565b6000546001600160a01b0316331461120b5760405162461bcd60e51b815260040161045c90611a16565b6000858152600160205260408120548691036112395760405162461bcd60e51b815260040161045c90611953565b60008681526001602081905260409091209081016112578782611abc565b506002810185905560038101849055600681016112748482611abc565b50867ff2f6cb462e8728158dbba5fcbe8181d88ca70bd5a0a5ad7f718c99ad80ba00a58787876040516112a993929190611b7c565b60405180910390a250505050505050565b6000546001600160a01b031633146112e45760405162461bcd60e51b815260040161045c90611a16565b60048054600091826112f5836119c9565b9190505590506040518060e0016040528082815260200187815260200186815260200185815260200160011515815260200184815260200183815250600160008381526020019081526020016000206000820151816000015560208201518160010190816113639190611abc565b506040820151600282015560608201516003820155608082015160048201805460ff191691151591909117905560a082015160058201906113a49082611abc565b5060c082015160068201906113b99082611abc565b50905050807fcca07c742c5274e8b72111ba69566aa4442450bfc50bd897ea38d0170d1accfc87876040516113ef929190611ba1565b60405180910390a2505050505050565b6000546001600160a01b031633146114295760405162461bcd60e51b815260040161045c90611a16565b6001600160a01b0381166114715760405162461bcd60e51b815260206004820152600f60248201526e496e76616c6964206164647265737360881b604482015260640161045c565b600080546001600160a01b0319166001600160a01b0392909216919091179055565b6000546001600160a01b031633146114bd5760405162461bcd60e51b815260040161045c90611a16565b6000818152600160205260408120548291036114eb5760405162461bcd60e51b815260040161045c90611953565b600082815260016020526040808220600401805460ff191690555183917f241c84b17626110b8c42e26f8f7de483066e7f266953509e01046f09e6fdd6cc91a25050565b6000806040838503121561154257600080fd5b50508035926020909101359150565b60006020828403121561156357600080fd5b5035919050565b6000815180845260005b8181101561159057602081850181015186830182015201611574565b506000602082860101526020601f19601f83011685010191505092915050565b87815260e0602082015260006115c960e083018961156a565b876040840152866060840152851515608084015282810360a08401526115ef818661156a565b905082810360c0840152611603818561156a565b9a9950505050505050505050565b805182526000602082015160e0602085015261163060e085018261156a565b9050604083015160408501526060830151606085015260808301511515608085015260a083015184820360a0860152611669828261156a565b91505060c083015184820360c0860152611683828261156a565b95945050505050565b60208152600061169f6020830184611611565b9392505050565b80356001600160a01b03811681146116bd57600080fd5b919050565b6000602082840312156116d457600080fd5b61169f826116a6565b6020808252825182820181905260009190848201906040850190845b81811015611715578351835292840192918401916001016116f9565b50909695505050505050565b6000602080830181845280855180835260408601915060408160051b870101925083870160005b8281101561177657603f19888603018452611764858351611611565b94509285019290850190600101611748565b5092979650505050505050565b6000806040838503121561179657600080fd5b61179f836116a6565b946020939093013593505050565b634e487b7160e01b600052604160045260246000fd5b600082601f8301126117d457600080fd5b813567ffffffffffffffff808211156117ef576117ef6117ad565b604051601f8301601f19908116603f01168101908282118183101715611817576118176117ad565b8160405283815286602085880101111561183057600080fd5b836020870160208301376000602085830101528094505050505092915050565b600080600080600060a0868803121561186857600080fd5b85359450602086013567ffffffffffffffff8082111561188757600080fd5b61189389838a016117c3565b9550604088013594506060880135935060808801359150808211156118b757600080fd5b506118c4888289016117c3565b9150509295509295909350565b600080600080600060a086880312156118e957600080fd5b853567ffffffffffffffff8082111561190157600080fd5b61190d89838a016117c3565b96506020880135955060408801359450606088013591508082111561193157600080fd5b61193d89838a016117c3565b935060808801359150808211156118b757600080fd5b602080825260169082015275141c9bd91d58dd08191bd95cc81b9bdd08195e1a5cdd60521b604082015260600190565b634e487b7160e01b600052601160045260246000fd5b80820281158282048414176119b0576119b0611983565b92915050565b818103818111156119b0576119b0611983565b6000600182016119db576119db611983565b5060010190565b600181811c908216806119f657607f821691505b602082108103610ce257634e487b7160e01b600052602260045260246000fd5b60208082526021908201527f4f6e6c79206f776e65722063616e2063616c6c20746869732066756e6374696f6040820152603760f91b606082015260800190565b634e487b7160e01b600052603260045260246000fd5b601f821115611ab757600081815260208120601f850160051c81016020861015611a945750805b601f850160051c820191505b81811015611ab357828155600101611aa0565b5050505b505050565b815167ffffffffffffffff811115611ad657611ad66117ad565b611aea81611ae484546119e2565b84611a6d565b602080601f831160018114611b1f5760008415611b075750858301515b600019600386901b1c1916600185901b178555611ab3565b600085815260208120601f198616915b82811015611b4e57888601518255948401946001909101908401611b2f565b5085821015611b6c5787850151600019600388901b60f8161c191681555b5050505050600190811b01905550565b606081526000611b8f606083018661156a565b60208301949094525060400152919050565b604081526000611bb4604083018561156a565b9050826020830152939250505056fea26469706673582212202301987445c7e34eb18b52e721d556e812ffaf759366967a5c33fb2170268cb564736f6c63430008130033",
  "linkReferences": {},
  "deployedLinkReferences": {}
}